:100000000C9462000C948A000C948A000C948A0070
:100010000C948A000C948A000C948A000C948A0038
:100020000C948A000C948A000C948A000C94CB06E1
:100030000C948A000C948A000C948A000C948A0018
:100040000C9481060C948A000C944F060C9429069B
:100050000C948A000C948A000C948A000C948A00F8
:100060000C9487070C948A000000000024002700ED
:100070002A0000000000250028002B0000000008D6
:10008000000201000003040700000000000000005F
:1000900000000000230026002900040404040404D6
:1000A0000404020202020202030303030303010227
:1000B00004081020408001020408102001020408F6
:1000C0001020EB0811241FBECFEFD8E0DEBFCDBF5C
:1000D00011E0A0E0B1E0EAE4FCE102C005900D927D
:1000E000A037B107D9F723E0A0E7B1E001C01D9226
:1000F000AD31B207E1F710E0C2E6D0E004C02197CD
:10010000FE010E941D0EC136D107C9F70E94720977
:100110000C94230E0C9400008F929F92AF92BF928A
:10012000FF920F931F93CF93DF93F0900E032BE07A
:100130002F1508F44CC02091100308E512E0021BB3
:10014000110927FD1395000F111F000F111F20919A
:100150000F03C8E8D0E0C21BD10927FDD395CC0F0F
:10016000DD1FCC0FDD1F4E010D2E000CAA08BB08B1
:100170009801012E000C440B550B281939094A0926
:100180005B09DC010E949B0C24EB30E040E050E076
:100190000E94710C820E931EA41EB51E8C169D0625
:1001A0002CF0E801801691060CF4E4012297CC0FA4
:1001B000DD1F2FB7F8948F2D90E0FC01EE0FFF1F8D
:1001C000E80FF91FE751FD4FD283C1832FBFDF91A5
:1001D000CF911F910F91FF90BF90AF909F908F9004
:1001E000089508950895AF92BF92CF92DF92EF9253
:1001F000FF920F931F93CF93DF936C017B018B01D1
:10020000040F151FEB015E01AE18BF08C017D10720
:1002100059F06991D601ED91FC910190F081E02DAA
:10022000C6010995892B79F7C501DF91CF911F91FF
:100230000F91FF90EF90DF90CF90BF90AF90089517
:10024000FC01538D448D252F30E0842F90E0821BDC
:10025000930B541710F0CF96089501970895FC0161
:10026000918D828D981761F0A28DAE0FBF2FB11DB9
:100270005D968C91928D9F5F9F73928F90E0089511
:100280008FEF9FEF0895FC01918D828D981731F0CB
:10029000828DE80FF11D858D90E008958FEF9FEF1F
:1002A0000895FC01918D228D892F90E0805C9F4FF5
:1002B000821B91098F739927089580E492E00E9430
:1002C000510121E0892B09F420E0822F089580E07C
:1002D00090E0892B29F00E945D0181110C940000AF
:1002E0000895FC01A48DA80FB92FB11DA35ABF4FCB
:1002F0002C91848D90E001968F739927848FA68925
:10030000B7892C93A089B1898C91837080648C9378
:10031000938D848D981306C00288F389E02D808127
:100320008F7D80830895EF92FF920F931F93CF9359
:10033000DF93EC0181E0888F9B8D8C8D98131AC020
:10034000E889F989808185FF15C09FB7F894EE8907
:10035000FF896083E889F989808183708064808364
:100360009FBF81E090E0DF91CF911F910F91FF90AF
:10037000EF900895F62E0B8D10E00F5F1F4F0F7357
:100380001127E02E8C8D8E110CC00FB607FCFACF12
:10039000E889F989808185FFF5CFCE010E9471013E
:1003A000F1CFEB8DEC0FFD2FF11DE35AFF4FF082E3
:1003B0009FB7F8940B8FEA89FB8980818062CFCF49
:1003C000CF93DF93EC01888D8823B9F0AA89BB898C
:1003D000E889F9898C9185FD03C0808186FD0DC077
:1003E0000FB607FCF7CF8C9185FFF2CF808185FF98
:1003F000EDCFCE010E947101E9CFDF91CF91089539
:10040000833081F028F4813099F08230A9F008958A
:100410008730A9F08830C9F08430B1F48091800031
:100420008F7D03C0809180008F7780938000089536
:1004300084B58F7784BD089584B58F7DFBCF80917F
:10044000B0008F778093B00008958091B0008F7DC9
:10045000F9CFCF93DF93282F30E0F901E458FF4F15
:100460008491F901E255FF4FD491F901E656FF4F0F
:10047000C491CC23A1F081110E940002EC2FF0E086
:10048000EE0FFF1FE057FF4FA591B491EC91ED23C4
:1004900081E090E009F480E0DF91CF91089580E061
:1004A00090E0FACF1F93CF93DF93282F30E0F9012C
:1004B000E458FF4F8491F901E255FF4FD491F901BF
:1004C000E656FF4FC491CC23A9F0162F81110E944C
:1004D0000002EC2FF0E0EE0FFF1FEE58FF4FA5914A
:1004E000B4918FB7F894EC91111108C0D095DE2328
:1004F000DC938FBFDF91CF911F910895DE2BF8CF52
:10050000CF93DF9390E0FC01E255FF4F2491865694
:100510009F4FFC0184918823D1F090E0880F991FB0
:10052000FC01E859FF4FA591B491FC01EE58FF4F33
:10053000C591D49161110EC09FB7F8948C91E22FB0
:10054000E0958E238C932881E223E8839FBFDF917F
:10055000CF9108958FB7F894EC91E22BEC938FBF75
:10056000F6CF8E3008F08E508770806480937C00C8
:1005700080917A00806480937A0080917A0086FD71
:10058000FCCF809178009091790008953FB7F8945E
:100590008091280290912902A0912A02B0912B0209
:1005A00026B5A89B05C02F3F19F00196A11DB11DCE
:1005B0003FBFBA2FA92F982F8827BC01CD01620F0A
:1005C000711D811D911D42E0660F771F881F991FC5
:1005D0004A95D1F708958F929F92AF92BF92CF9292
:1005E000DF92EF92FF924B015C010E94C6026B0109
:1005F0007C010E94C6026C197D098E099F09683E24
:10060000734081059105A8F321E0821A9108A108A1
:10061000B10888EEC80E83E0D81EE11CF11C8114DD
:100620009104A104B10429F7FF90EF90DF90CF90DF
:10063000BF90AF909F908F90089508952091B10141
:10064000260F3327331F21323105ECF42091FA01B4
:10065000FC0190E080E0243069F082E00895A091F0
:10066000B1012191AC014F565E4FA40FB52FB11DC2
:100670002C930196861798F38091B101680F6093CF
:10068000B10180E0089581E008951092FA0181E0BF
:100690008093F9011092D40161E082E10E9452023C
:1006A00061E083E10E945202E9EBF0E080818E7FFD
:1006B000808380818D7F808388E48093B80085E487
:1006C0008093BC000895CF93DF9391E090939001C5
:1006D0008823B9F0C091B800D091BA008091BC00D5
:1006E0008A7B8093BC0060E082E10E94520260E05D
:1006F00083E10E9452020E944503D093BA00C09346
:10070000B800DF91CF9108950895E0913302809170
:100710003202E81730F4F0E0E059FE4F808190E0BB
:1007200008958FEF9FEF08959091330280913202E8
:100730002FEF3FEF981748F4E92FF0E0E059FE4F14
:10074000208130E09F5F90933302C901089580912A
:10075000320290913302891B990B0895CF92DF9258
:10076000EF92FF920F931F93CF93DF937C01CB0106
:100770008A0120910002222389F0EB016B01C40E53
:10078000D51ECC15DD0569F06991D701ED91FC917D
:100790000190F081E02DC7010995F3CF642F0E94ED
:1007A0001E03C801DF91CF911F910F91FF90EF9031
:1007B000DF90CF900895CF93DF931F92CDB7DEB730
:1007C0006983209100022223F9F020913002203227
:1007D00058F021E030E0FC013383228390E080E098
:1007E0000F90DF91CF91089580913102E82FF0E0D2
:1007F000EF5FFD4F998190838F5F809331028093EB
:10080000300281E090E0ECCF61E0CE0101960E94E1
:100810001E03F7CFCF92DF92EF92FF920F931F93B9
:10082000CF93DF93FC01C48121E020930002C093A9
:10083000210210923102109230028385682B8DEDD7
:1008400092E00E94DB03D0913002D13208F092C0D6
:100850000E94C6026B017C018091FA01811165C082
:1008600082E08093FA0181E08093F9018FEF809319
:10087000F8011092F701D093F601A1E0B2E0E6EDA5
:10088000F1E080E0D81385C01092D5018091D501A8
:10089000CC0FC82BC093D5018091D401813009F0D1
:1008A0007CC01092D4010E94C6026B017C01809131
:1008B000D5018093BB008091FC019091FD01A09136
:1008C000FE01B091FF01892B8A2B8B2B99F00E949E
:1008D000C6020091FC011091FD012091FE013091B2
:1008E000FF016C197D098E099F0906171707280754
:1008F0003907E0F18091BC0083FDD9CF85EC80936E
:10090000BC000E94C6026B017C018091FA0182301A
:1009100009F445C08091F8018F3F61F18091F801A1
:10092000803241F18091F80125C08091FC019091C5
:10093000FD01A091FE01B091FF01892B8A2B8B2B29
:1009400009F48ACF0E94C6020091FC011091FD01BA
:100950002091FE013091FF016C197D098E099F09DC
:10096000061717072807390708F076CF8091FB0193
:100970000E94630310923102109230021092000222
:10098000DF91CF911F910F91FF90EF90DF90CF906B
:1009900008959D9191938F5F75CF85EEB0CF809133
:1009A000FC019091FD01A091FE01B091FF01892B06
:1009B0008A2B8B2B09F4A9CF0E94C6020091FC015F
:1009C0001091FD012091FE013091FF016C197D090C
:1009D0008E099F09061717072807390708F095CFD2
:1009E000C5CF90E080E008950F931F93CF938C01C3
:1009F000C62F0E940A046C2F6460C8010E940A047A
:100A00006C2F6B7FC8010E940A0483EC90E0019771
:100A1000F1F7CF911F910F9108950F931F93CF93EB
:100A2000DF938C01D62FC42F607F642B0E94F404C7
:100A300080E1D89FB00111246C2BC801DF91CF91C8
:100A40001F910F910C94F404CF93DF93CDB7DEB7D1
:100A500028970FB6F894DEBF0FBECDBF98E0E0E058
:100A6000F1E0DE01119601900D929A95E1F79091D7
:100A70001A03961708F46FEF262F30E0220F331F6A
:100A800041E050E04C0F5D1F240F351FF9016081DC
:100A9000680F606840E081E193E028960FB6F89413
:100AA000DEBF0FBECDBFDF91CF910C940D0541E0AD
:100AB0000E940D0581E090E00895FB010190002067
:100AC000E9F73197AF01461B570BDC01ED91FC9123
:100AD0000280F381E02D09944F925F926F927F9292
:100AE000AF92BF92CF92DF92EF92FF920F931F933C
:100AF000CF93DF93CDB7DEB7A1970FB6F894DEBFE3
:100B00000FBECDBF5C016A017B01F7FE47C0DC016F
:100B1000ED91FC910190F081E02D6DE209958C0141
:100B200022273327A9012C193D094E095F0919A273
:100B3000FE01B1967F019AE0492E512C612C712C57
:100B4000CA01B901A30192010E94A30C605DD70103
:100B50006E937D01211531054105510589F790E01E
:100B600080E0109721F0BD01C5010E945D05800F56
:100B7000911FA1960FB6F894DEBF0FBECDBFDF91D7
:100B8000CF911F910F91FF90EF90DF90CF90BF908A
:100B9000AF907F906F905F904F900895AB0196015A
:100BA00019A28E010F5D1F4F8AE0C82ED12CE12CB7
:100BB000F12CCA01B901A70196010E94A30C605D46
:100BC000F80162938F01211531054105510589F71F
:100BD00090E080E0309769F2BF01C5010E945D0599
:100BE000C8CF85ED8093BC008091FC019091FD0100
:100BF000A091FE01B091FF010796A11DB11D23E058
:100C0000B695A795979587952A95D1F72091BC0021
:100C100024FD03C01092FA0108954091FC01509107
:100C2000FD016091FE017091FF01452B462B472B82
:100C300069F30097A105B10541F025E32A95F1F785
:100C400000000197A109B109E1CF8091FB010C944B
:100C500063031F920F920FB60F9211242F933F93AD
:100C60004F935F936F937F938F939F93AF93BF93B4
:100C7000EF93FF9380E492E00E947101FF91EF9166
:100C8000BF91AF919F918F917F916F915F914F91A4
:100C90003F912F910F900FBE0F901F9018951F92AC
:100CA0000F920FB60F9211242F938F939F93EF9370
:100CB000FF93E0915002F09151028081E091560241
:100CC000F091570282FD1BC09081809159028F5F85
:100CD0008F7320915A02821741F0E0915902F0E09F
:100CE000E05CFD4F958F80935902FF91EF919F91AA
:100CF0008F912F910F900FBE0F901F9018958081AC
:100D0000F4CF1F920F920FB60F9211242F933F939F
:100D10008F939F93AF93BF9380912402909125026C
:100D2000A0912602B09127023091230223E0230FE5
:100D30002D3758F50196A11DB11D209323028093F4
:100D4000240290932502A0932602B093270280915B
:100D5000280290912902A0912A02B0912B020196BB
:100D6000A11DB11D8093280290932902A0932A020D
:100D7000B0932B02BF91AF919F918F913F912F9193
:100D80000F900FBE0F901F90189526E8230F029624
:100D9000A11DB11DD2CF1F920F920FB60F92112439
:100DA0002F933F934F935F936F937F938F939F9373
:100DB000AF93BF93CF93DF93EF93FF938091220282
:100DC000C0910D03D0E087FF24C0109285001092DF
:100DD0008400809122028F5F809322028091220200
:100DE000082E000C990B8C179D0724F48091220289
:100DF0008C30C4F1809184009091850004968034F9
:100E00009C4908F47AC080918400909185000496F2
:100E100076C080912202082E000C990B8C179D073A
:100E2000C4F6E09122028E2FEE0F990BFC01EE0F1B
:100E3000FF1FE80FF91FE751FD4F808186FFC9CFE3
:100E4000E09122028E2FEE0F990BFC01EE0FFF1F97
:100E5000E80FF91FE751FD4F808160E08F730E941A
:100E60005202B7CF2091840030918500E091220298
:100E70008E2FEE0F990BFC01EE0FFF1FE80FF91FED
:100E8000E751FD4F81819281820F931F90938900DA
:100E900080938800E09122028E2FEE0F990BFC01C7
:100EA000EE0FFF1FE80FF91FE751FD4F808186FF0E
:100EB00011C0E09122028E2FEE0F990BFC01EE0F74
:100EC000FF1FE80FF91FE751FD4F808161E08F732D
:100ED0000E945202FF91EF91DF91CF91BF91AF91AC
:100EE0009F918F917F916F915F914F913F912F9142
:100EF0000F900FBE0F901F90189580E49CE990937F
:100F00008900809388008FEF80932202E3CF1F92A5
:100F10000F920FB60F9211242F933F934F935F932D
:100F20006F937F938F939F93AF93BF93EF93FF93B1
:100F30008091B900887F803609F44AC0F0F5883284
:100F400009F4A7C018F5803109F49BC0B8F48823D0
:100F500009F4F9C0883009F494C0FF91EF91BF9172
:100F6000AF919F918F917F916F915F914F913F9141
:100F70002F910F900FBE0F901F901895883109F494
:100F800088C0803251F78093F80114C0803409F48E
:100F90009DC040F48033B9F38833F9F68093F801AB
:100FA00085ECB0C0803509F485C0883509F496C059
:100FB000883499F60E94F105D0CF883909F48CC0A5
:100FC00038F5883729F050F4883611F0803729F643
:100FD00083E08093FA011092D30157C0883809F456
:100FE0007BC0803919F0803809F0B7CF8091D301E8
:100FF000803208F071C0E091D30181E08E0F8093C0
:10100000D3018091BB00F0E0ED54FE4F80833DC0E2
:10101000803B39F0E0F4803A09F479C0883A09F06D
:101020009CCF84E08093FA011092B2011092B1013A
:10103000E0912E02F0912F0209958091B10181116A
:101040000FC081E08093B1011092910109C0803CF2
:1010500009F4A6CF883C09F4A3CF883B09F07DCFE3
:10106000E091B20181E08E0F8093B201F0E0EF5683
:10107000FE4F80818093BB009091B2018091B101BD
:1010800029C08091D5018093BB0085EC8093BC0082
:1010900064CF9091F7018091F601981758F5E0918F
:1010A000F70181E08E0F8093F701F0E0EA52FE4FE6
:1010B0008081E9CFE091F70181E08E0F8093F70105
:1010C0008091BB00F0E0EA52FE4F80839091F701DF
:1010D0008091F6019817C8F285E8D8CFE091F70122
:1010E00081E08E0F8093F7018091BB00F0E0EA521F
:1010F000FE4F80838091F90181115CCF81E0809364
:10110000D40184EA8093BC001092FA0126CF85ECCA
:101110008093BC001092FA018091D301803230F4A8
:10112000E091D301F0E0ED54FE4F10826091D301C5
:1011300070E0E0912C02F0912D0283EB91E0099593
:101140001092D3010ACF1092F80134CFCF92DF92E0
:10115000EF92FF920F931F93E82FF92F05C00150D4
:1011600011092109310961F1908196239417B9F38E
:1011700005C0015011092109310911F1908196230F
:101180009413F7CFC12CD12CE12CF12C0AC08FEF96
:10119000C81AD80AE80AF80A0C151D052E053F05DD
:1011A00079F080818623841791F36C2D7D2D8E2D0F
:1011B0009F2D1F910F91FF90EF90DF90CF9008959A
:1011C00060E070E080E090E01F910F91FF90EF9061
:1011D000DF90CF900895109243021092420288EE61
:1011E00093E0A0E0B0E08093440290934502A09386
:1011F0004602B09347022CE031E030934102209345
:10120000400225EC30E030934D0220934C0224EC58
:1012100030E030934F0220934E0220EC30E03093C8
:1012200051022093500221EC30E03093530220937E
:10123000520222EC30E0309355022093540226EC07
:1012400030E03093570220935602109259021092C8
:101250005A0210925B0210925C021092E00210920D
:10126000DF028093E1029093E202A093E302B09345
:10127000E4028EE191E09093DE028093DD02109211
:1012800014031092130380E391E090931203809370
:10129000110387E28093150380E18093190382E0B4
:1012A00080931A0310921B0388E080931C038091A3
:1012B0000D038C3098F491E0980F90930D03809378
:1012C0000E0390E0FC01EE0FFF1FE80FF91FE7513E
:1012D000FD4F88EB9BE09283818308958FEF80938D
:1012E0000E030895789484B5826084BD84B58160CE
:1012F00084BD85B5826085BD85B5816085BD8091E1
:101300006E00816080936E00109281008091810058
:101310008260809381008091810081608093810050
:10132000809180008160809380008091B100846012
:101330008093B1008091B00081608093B000809173
:101340007A00846080937A0080917A008260809332
:101350007A0080917A00816080937A0080917A008F
:10136000806880937A001092C100E0915002F09161
:10137000510282E08083E0914C02F0914D02108294
:10138000E0914E02F0914F028FEC80831092580250
:10139000E0915402F091550286E08083E091520280
:1013A000F0915302808180618083E0915202F0913C
:1013B0005302808188608083E0915202F091530251
:1013C000808180688083E0915202F0915302808195
:1013D0008F7D80831092330210923202109231027C
:1013E000109230020E94450381EF90E090932F020B
:1013F00080932E0282EF90E090932D0280932C0236
:101400001092160380911A03823018F098E090939E
:10141000160390911B03992339F0813029F48091B0
:10142000160384608093160362E370E080E090E02E
:101430000E94EB0260911C0381E193E00E940A0488
:1014400068EE73E080E090E00E94EB0260E381E1EF
:1014500093E00E94F404CBE4D6E4CE010197F1F7C7
:1014600060E381E193E00E94F4042197F1F760E3E7
:1014700081E193E00E94F40483E592E00197F1F7A3
:1014800060E281E193E00E94F404609116036062DF
:1014900040E081E193E00E940D0584E08093170312
:1014A00040E06CE081E193E00E940D0540E061E0E6
:1014B00081E193E00E940D05CBE3DFE1CE010197CE
:1014C000F1F782E08093180340E066E081E193E069
:1014D0000E940D0540E062E081E193E00E940D056D
:1014E0002197F1F760E080E00E94240568E371E055
:1014F00081E193E00E945D0561E080E00E942405A7
:1015000067E471E081E193E00E945D0580910E0344
:101510008C3008F051C061E08BE00E948002809125
:101520000E03282F30E0F901EE0FFF1FE20FF31F2B
:10153000E751FD4F9081907C9B60908310920F0348
:10154000109210032CE0622F0E940A0E829FB001BD
:10155000112430E020E0AB01420F531FFA01EE0FDF
:10156000FF1FE40FF51FE751FD4F908196FD16C058
:101570002F5F3F4F2C30310571F781110FC0109252
:10158000800082E080938100109285001092840098
:10159000B19A80916F00826080936F00E0910E039A
:1015A0008E2F90E0FC01EE0FFF1FE80FF91FE751AF
:1015B000FD4F80818064808360E088E00E9480022B
:1015C00060E089E00E94800260E08AE00E94800280
:1015D00060E086E00E94800261E082E00E9480027A
:1015E00061E08CE00E94800260E08DE00E94800259
:1015F00061E084E00E94800261E085E00E94800258
:1016000061E087E00E94800260E081E10E94800248
:1016100060E08EE00E94800264E670E080E090E08E
:101620000E94EB0240E061E081E193E00E940D0541
:101630008BE39FE10197F1F747EA242E40E0342E37
:1016400052E3C52EDD24D394E12CF12C44244A949A
:1016500063E0562E612C712C61E08CE00E945202F6
:101660008BE99FE00197F1F760E08CE00E94520265
:10167000EBEBF0E06491F1018491E82FF0E0EE0FE4
:10168000FF1FE057FF4F8591949100E412E42FE093
:1016900030E0462F0E94A60861157105810591056D
:1016A00029F06F5F7F4F8F4F9F4F9F709595879564
:1016B000779567950E947E0D2DEC3CEC48EE51E449
:1016C0000E94D40C0E94460D4B015C01BC01A40198
:1016D00080E492E00E946C0567E571E080E492E0AE
:1016E0000E945D056AE571E080E492E00E945D057C
:1016F0006AE070E080E090E00E94EB0261E0F5EFCC
:101700008F16F1E09F06A104B1040CF060E082E0C6
:101710000E94520288E00E9429028C0190933F02AD
:1017200080933E0289E00E942902EC0190933D02E1
:1017300080933C028AE00E94290290933B028093AE
:101740003A0261E00130110509F060E084E00E9496
:101750005202219709F0BCC061E085E00E9452026C
:1017600061E087E00E94520286E00E942902909385
:101770003902809338028EE00E94B1029C01990FD9
:10178000440B550B2150310941095109A8ECB0E037
:101790000E94900CA70196010E94710C30933702B1
:1017A0002093360260E08AE00E9424056DE571E036
:1017B00081E193E00E945D0540913602509137022D
:1017C000052E000C660B770B81E193E00E946C05FF
:1017D00060E671E080E492E00E945D05409136028F
:1017E00050913702052E000C660B770B80E492E0D7
:1017F0000E946C056AE571E080E492E00E945D055C
:1018000080913A0290913B02019709F067C0809164
:10181000360290913702C39754F480913802909128
:101820003902019721F48AE590E00E948C0081E161
:101830000E94B10228EC30E0DC010E94160EA301E8
:1018400092010E94710C309335022093340260E0C3
:1018500080E00E94240564E671E081E193E00E944B
:101860005D054091340250913502052E000C660B47
:10187000770B81E193E00E946C0561E080E00E94BB
:10188000240569E671E081E193E00E945D054091E5
:1018900034025091350249515109052E000C660B56
:1018A000770B81E193E00E946C056AE070E080E0D4
:1018B00090E00E94EB0280E090E0892B09F4CCCE0E
:1018C0000E945D01882309F4C7CE0E940000C4CEA7
:1018D00060E085E00E94520260E043CF90E080E04B
:1018E000A4CF052E97FB1EF400940E94880C57FD90
:1018F00007D00E94A30C07FC03D04EF40C94880C74
:1019000050954095309521953F4F4F4F5F4F08952B
:1019100090958095709561957F4F8F4F9F4F08955B
:101920000E94C50CA59F900DB49F900DA49F800DA3
:10193000911D11240895B7FF0C94900C0E94900CF7
:10194000821B930B0895A1E21A2EAA1BBB1BFD015B
:101950000DC0AA1FBB1FEE1FFF1FA217B307E4078E
:10196000F50720F0A21BB30BE40BF50B661F771FE6
:10197000881F991F1A9469F76095709580959095C6
:101980009B01AC01BD01CF010895A29FB001B39F9F
:10199000C001A39F700D811D1124911DB29F700D78
:1019A000811D1124911D08950E94E80C0C94D00D06
:1019B0000E94C90D58F00E94C20D40F029F45F3F0B
:1019C00029F00C94B90D51110C94040E0C94BF0D18
:1019D0000E94E10D68F39923B1F3552391F3951B10
:1019E000550BBB27AA2762177307840738F09F5F40
:1019F0005F4F220F331F441FAA1FA9F335D00E2EAD
:101A00003AF0E0E832D091505040E695001CCAF719
:101A10002BD0FE2F29D0660F771F881FBB1F2617DC
:101A200037074807AB07B0E809F0BB0B802DBF01B3
:101A3000FF2793585F4F3AF09E3F510578F00C9482
:101A4000B90D0C94040E5F3FE4F3983ED4F38695F1
:101A500077956795B795F7959F5FC9F7880F911DA3
:101A60009695879597F90895E1E0660F771F881F8F
:101A7000BB1F621773078407BA0720F0621B730B42
:101A8000840BBA0BEE1F88F7E09508950E944D0D68
:101A90006894B1110C94040E08950E94E90D88F029
:101AA0009F5798F0B92F9927B751B0F0E1F0660F22
:101AB000771F881F991F1AF0BA95C9F714C0B13063
:101AC00091F00E94030EB1E008950C94030E672F6D
:101AD000782F8827B85F39F0B93FCCF38695779592
:101AE0006795B395D9F73EF490958095709561957B
:101AF0007F4F8F4F9F4F0895E89409C097FB3EF4A6
:101B000090958095709561957F4F8F4F9F4F99234A
:101B1000A9F0F92F96E9BB279395F69587957795C8
:101B20006795B795F111F8CFFAF4BB0F11F460FF88
:101B30001BC06F5F7F4F8F4F9F4F16C0882311F0E0
:101B400096E911C0772321F09EE8872F762F05C0F4
:101B5000662371F096E8862F70E060E02AF09A958F
:101B6000660F771F881FDAF7880F9695879597F984
:101B7000089597F99F6780E870E060E008959FEF0F
:101B800080EC089500240A94161617061806090614
:101B9000089500240A9412161306140605060895E3
:101BA000092E0394000C11F4882352F0BB0F40F46B
:101BB000BF2B11F460FF04C06F5F7F4F8F4F9F4FAB
:101BC000089557FD9058440F551F59F05F3F71F02D
:101BD0004795880F97FB991F61F09F3F79F0879594
:101BE0000895121613061406551FF2CF4695F1DF1D
:101BF00008C0161617061806991FF1CF86957105AD
:101C0000610508940895E894BB2766277727CB01E0
:101C100097F90895991B79E004C0991F961708F069
:101C2000961B881F7A95C9F7809508950E94C50C68
:101C3000B7FF0895821B930B0895EE0FFF1F0590C9
:0A1C4000F491E02D0994F894FFCF11
:101C4A000000400014005400000000009301F3005B
:101C5A002001E00151012F01430100000000DB03D4
:101C6A00AE03F1048403A703940385030000000074
:101C7A005705F300F1041D0357656C636F6D65200A
:101C8A00546F204F757200202020202050726F6AF6
:101C9A0065637420202000434D000D0A00543A0069
:101CAA00746D700042504D3A0053704F323A000042
:00000001FF
